:0E0000003CC0FECFFDCFFCCFFBCFFACFF9CF37
:10000E00F8CFF7CFF6CFF5CFF4CFF3CFF2CFF1CFC6
:10001E00F0CFEFCFEECFEDCF0000313337394C6F4D
:10002E00636B3A204F464600506173733A20004C82
:10003E006F636B3A204F4E00496E76616C69642097
:10004E0050617373776F7264000080C00100050009
:10005E0026000400710128000A0060012C00070030
:10006E006A01360002007B0158000000F894EE276A
:10007E00ECBBF1E0FBBFEBBFE5BF8DE0A2E0BB2721
:10008E00ED938A95E9F780E094E0A0E6ED93019771
:10009E00E9F7EAE5F0E085919591009761F0A59179
:1000AE00B59105901590BF01F00105900D92019745
:1000BE00E1F7FB01F0CFEFE5EDBFE4E0EEBFC0E608
:1000CE00D1E000C0E0E0E7BBE8BBE4BBE5BBE1BBD1
:1000DE00E2BBA09AE0EFE1BBA0E1FCD0A89844D12E
:1000EE00A0E6B1E0D5D0E0E0EA93A1E0A1D0AAE687
:1000FE00B1E0CED03ED01E2F1F3FE1F3A1E039D1AB
:10010E0038D0EF3FE9F71A3019F435D139D12FC075
:10011E001B30F9F4E52DF0E0EA58FE4FA0E0A08385
:10012E002AD1A1E7B1E0FFD0E03049F4A89A1CD162
:10013E00ADE3B0E0BCD01DD0EA30E9F707C085D002
:10014E00A6E4B0E0B4D0A0EDB7E03DD114D118D103
:10015E000EC0E4E05E1650F4A52DB0E0AA58BE4FD6
:10016E00E12FE05DEC935394AAE27DD0C3CFB6CFDE
:10017E00FFCF33D11FEF949808D159F00BD111F462
:10018E0011E007C00DD111F412E003C00DD109F436
:10019E0013E0949A9598F9D059F0FCD011F414E02C
:1001AE0007C0FED011F415E003C0FED009F416E02E
:1001BE00959A9698EAD059F0EDD011F417E007C051
:1001CE00EFD011F418E003C0EFD009F419E0969ABD
:1001DE009798DBD059F0DED011F41AE007C0E0D0CA
:1001EE0011F410E003C0E0D009F41BE0979AEFEF92
:1001FE00E2BBE12F099119910895AA93E8B3EF702C
:10020E00AE2FE881E07FEA2BE8BBD2D0C29AD0D0E5
:10021E00C298CED086C0AA93A881EFDFE881E2957E
:10022E00E883A881EADF88EC90E00197F1F779C0C6
:10023E00AA93E881F0E0E558FE4FE081A981AE0F68
:10024E00EADF4980788022960895A2E0E4DFA3E0F9
:10025E0090D0ACE0E0DFA1E0DEDFA3E08AD0E0E00A
:10026E007E2E4E2E0895AA93A881AA3011F0461420
:10027E0048F0E0E0EA937394A72DDADFA881AA3064
:10028E0009F44FC04394C09AA881C5DFC09849C0F5
:10029E00BA93AA931A93A981BA81ED91A983BA83CD
:1002AE001E2FE03019F0A12FDEDFF5CF10C0BA936C
:1002BE00AA931A93E981FA813196E983FA833197E9
:1002CE00E4911E2FE03019F0A12FCDDFF3CF18816E
:1002DE0023960895AA93E7B3E06FE7BBBA9AB89A4C
:1002EE00B99AC298C098C1986880E881E058E093A6
:1002FE007D01E881E054E0937E01A4E13AD05CD028
:10030E005BD05AD0A0E279DF80E991E00197F1F756
:10031E00A8E281DFA4E07FDFA5E87DDFA6E07BDF3A
:10032E0094DF21960895BA93AA93E991F991A99130
:10033E00B9916D917191671721F46623D1F7EE276C
:10034E000895671BE1F3E1E008F4E2500895BA93D3
:10035E00AA93E991F991A991B991CD0105900D92C8
:10036E000020E1F7FC01089570DFE3E0EA93A0E0DE
:10037E005FCFB0E028C0E6E7F1E0FA93EA93089584
:10038E00A5E3B0E0E4DF55240895E0B3E7700E2F47
:10039E0007300895E02FF0E0E630A0E0FA07089568
:1003AE00E430A0E0FA070895E330A0E0FA070895DC
:1003BE008BE18A95F1F70895A0E31FDF80E991E0C4
:1003CE000197F1F70895109639F080EA9FE00197B2
:1003DE00F1F7A8951197C9F708951A930A930895FE
:00000001FF
