:040000000C943F001D
:100004000C9400000C9400000C9400000C9400006C
:100014000C9400000C9400000C9400000C9400005C
:100024000C9400000C9400000C9400000C9400004C
:100034000C9400000C9400000C9400000C9400003C
:100044000C9400000C9400000C9400000C9400002C
:100054001027E80364000A000100001000011000EA
:1000640001004D6F737461666146617A6C690000CA
:1000740080C00200600274000000F894EE27ECBB1C
:10008400F1E0FBBFEBBFE5BF8DE0A2E0BB27ED9342
:100094008A95E9F780E098E0A0E6ED930197E9F707
:1000A400E6E7F0E085919591009761F0A591B5910F
:1000B40005901590BF01F00105900D920197E1F7AD
:1000C400FB01F0CFEFE5EDBFE8E0EEBFC0E6D2E024
:1000D4000C946C006197E0E0EABBEBBBE7BBE8BBC8
:1000E400E4BBE5BBE1BBE2BBE3BFE2BFECBFEFBDFA
:1000F400EEBDEDBDECBDE7BDE6BDEBBDEABDE9BDC2
:10010400E8BDE2BDE5BDE4BDE3BDE9BFE5BFE4BFD5
:10011400EAB9E0E8E8B9E0E0E0BFE6B9EDB9E6BF86
:10012400ACE00E94B102FE01FA93EA93E6E6F0E045
:10013400FA93EA9380E00E941E022496E0E0EA9398
:10014400A0E00E947202DE010E94A002ECCFFFCF69
:10015400BA93AA931A930A93AA81BB8112960E9416
:100164004403309759F1AA81BB8114960E94440339
:100174008F01309761F00230E0E01E0798F0F8013B
:1001840031978F01AA81BB811496ED93FC93AA81C8
:10019400BB811296ED91FD913196FE93EE933197CA
:1001A400AC81A083AA81BB810E944403FF232AF06F
:1001B400ED91FD913196FE93EE9306C0AA81BB8129
:1001C400EFEFFFEFED93FC931981088125960895D5
:1001D400BA93AA9326970E944C0310E0AC85BD8580
:1001E400E0E0F0E0ED93FC93EA89FB893196EA8B39
:1001F400FB8B3197E4912E2FE03009F415C1E12FE8
:10020400E03039F4253211F411E002C00E94F80202
:100214000AC1E130A9F4253219F40E94F80202C19E
:1002240012E040E000E02D3211F401E0FCC02B327A
:1002340011F44BE2F8C0203211F440E2F4C002C0E1
:10024400E23039F450E013E0203311F40068EBC0DD
:1002540003C0E33009F0E7C0203310F02A3308F07C
:1002640007C0AAE05A9F502DE22FE0535E0FDBC077
:10027400E22FE33649F40E94FF02E889F989A48158
:10028400AA930E940503CEC0E33741F40E94FF0203
:100294000E940B030E94DF021E2F0AC0E03761F4A4
:1002A4000E94FF020E940B030E94EB021E2F0860B3
:1002B40002600F7730E034C0E43611F0E93611F40F
:1002C400046002C0E53731F4E4E5F0E0EE83FF8337
:1002D40015E00CC0E83511F4086003C0E83709F0F4
:1002E400A1C0EEE5F0E0EE83FF8314E002FF14C04A
:1002F4000E94FF020E941503AB85AA233AF4EA8503
:10030400FB850E944003EA87FB874DE2403011F0F1
:100314001F5F01C00B7F04C00E94FF020E941503EF
:1003240000FD11C0151778F407FF08C002FF04C0D0
:100334000B7F242F115001C020E301C020E20E9452
:10034400F8025150EFCF312F01FF17C03030A1F028
:1003540003FF06C0EE81FF812591EE83FF8305C074
:10036400AE81BF812D91AE83BF830E94F8025030CD
:1003740009F051503150EACF4BC020E3EE81FF81A8
:100384000E944803E887F987EE81FF813296EE8365
:10039400FF83E885F985AA85BB85AE17BF0750F0B2
:1003A4002F5FA885B985EA85FB85EA1BFB0BEA87E5
:1003B400FB87EFCF2A3328F003FF02C0295F01C077
:1003C400295D04FD1AC0213320F4A885B98511974D
:1003D40009F409C0531710F000FF01C013C020E254
:1003E40007FF0BC020E3006102FF07C00B7F4A93A5
:1003F4000E940503503009F051500E94F802503019
:1004040009F051503150A885B985129708F0B5CF3D
:1004140000FF08C0503031F05150E0E2EA930E94EE
:100424000503F8CF10E0E0CEAC85BD850E944403FF
:100434000E94530364960895FF92F82E26970E9413
:100444004E030E941D03309719F4EFEFFFEF23C012
:10045400DE0116960E943C038D010E941D03EE836B
:10046400FF83E0E0E887E987DE011A960E943C03F7
:100474000E944403FA93EA931A930A93EAEAF0E097
:10048400FA93EA93DE011A96A3DE9F01AE81BF813F
:10049400E0E0EC93F9010E9455032A96FF90089539
:1004A400AA93E2B3EF70AE2FE881E07FEA2BE2BBC0
:1004B4008DE08A95F1F7929A8DE08A95F1F79298FA
:1004C4008DE08A95F1F777C0AA93A881E9DFE881E6
:1004D400E295E883A881E4DF85E88A95F1F76BC0AB
:1004E400AA93E881F0E0E05AFD4FE081A981AE0FC4
:1004F400EBDF5980488022960895A2E00E942403ED
:10050400ACE0E2DFA1E00E942403E0E04E2E5E2E88
:100514000895AA93A881AA3011F0571448F0E0E096
:10052400EA934394A42DDCDFA881AA3009F443C0E4
:100534005394909AA881C8DF90983DC0BA93AA9327
:100544001A93A981BA81ED91A983BA831E2FE03051
:1005540019F0A12FDEDFF5CF188123960895AA9311
:10056400E1B3E06FE1BB8A9A889A899A929890984D
:1005740091987880E881E058E0936202E881E05441
:10058400E0936302A4E1B0E00E9432030E942A03D4
:100594000E942A030E942A03A0E282DF88EC90E0F2
:1005A4000197F1F7A8E290DFA4E08EDFA5E88CDFE5
:1005B400A6E08ADFA2DF21960895BA93AA93A991AF
:1005C400B991EE27FF276D91662311F03196FBCF89
:1005D4000895BA93AA93AA27BB27E991F9910590A4
:1005E400002011F01196FBCFFD0108952A93AD85EB
:1005F400BE85EF85F88909950895E889F9893497C6
:10060400E88BF98B0895AD85BE85EF85F88909954A
:100614000895A889B98914960E944403EE83FF8340
:10062400AE81BF810895A889B98914960E944403B4
:10063400EA87FB870895DE011C960E943C030E9412
:10064400440308950E946602A3E0B0E00C943203D0
:10065400A0E30E94520288EC90E00197F1F708951C
:10066400109639F080ED97E00197F1F7A89511976E
:10067400C9F708950024AF0DB01D0895F195E195D3
:10068400F0400895ED91FC91119708950590F4912F
:10069400E02D08955A934A933A932A931A930A930E
:1006A40008955D814C813B812A81198108810895D7
:00000001FF
