:040000000C942F002D
:100004000C9400000C9400000C9400000C9400006C
:100014000C9400000C9400000C9400000C9400005C
:100024000C9400000C9400000C9400000C9400004C
:100034000C9400000C9400000C9400000C9400003C
:100044000C9400000C9400000C9400000C9400002C
:10005400C0F9A4B0999282F88090F894EE27ECBB92
:10006400F1E0FBBFEBBFE5BF8DE0A2E0BB27ED9362
:100074008A95E9F780E094E0A0E6ED930197E9F72B
:10008400EFE5EDBFE4E0EEBFC0E6D1E00C944A003A
:100094002A978AE0A0E0B0E0E4E5F0E00E947B006B
:1000A400EFEFE4BBE0E0E5BBEFE0E1BBE0E0E2BBA7
:1000B400E1E0E2BBE9810ED0E2E0E2BBEA810AD0F2
:1000C400E4E0E2BBEB8106D0E8E0E2BBEC8102D0E5
:1000D400EFCFFFCFE5BBA1E0B0E00C947100109628
:1000E40039F080ED97E00197F1F7A8951197C9F7DA
:1000F4000895AC0FBD1F05900D928A95E1F7089500
:00000001FF
