:060000000C9438000C9482
:1000060000000C9400000C9400000C9400000C946A
:1000160000000C9400000C9400000C9400000C945A
:1000260000000C9400000C9400000C9400000C944A
:1000360000000C9400000C9400000C9400000C943A
:1000460000000C9400000C9400000C940000C0F911
:10005600A4B0999282F88090FEFDFBF70A00600139
:10006600540004006A015E000000F894EE27ECBB21
:10007600F1E0FBBFEBBFE5BF8DE0A2E0BB27ED9350
:100086008A95E9F780E094E0A0E6ED930197E9F719
:10009600E2E6F0E085919591009761F0A591B59122
:1000A60005901590BF01F00105900D920197E1F7BB
:1000B600FB01F0CFEFE5EDBFE4E0EEBFC0E6D1E037
:1000C6000C94DB0022971A930A9310E003E066244F
:1000D600E4E06E1690F5E62DF0E0E659FE4FE0817D
:1000E600E8BBB49902C000E0FCCFB59902C001E0BC
:1000F600FCCFB69902C002E0FCCF033089F0E12FB5
:10010600F0E0DE011296EA0FFB1FBF01E62DA3E029
:10011600EA02F001E00FDB01EC9303E01F5FEDCF95
:10012600123049F4EA81AAE0EA02F001AB81EA0F53
:10013600198108813BC06394CBCFC9CFAA931A9388
:10014600EB81AAE0EA02F001AA81EA0F1E2F103025
:1001560061F16624EFE06E16A0F4EEEFE2BBE981F2
:10016600E03011F0E0E0EBBBEA813ED0E981E0301F
:1001760011F0E2E0EBBBEDEFE2BBEB8135D063942F
:10018600E9CFEA81E03029F4EAE0EA83EB81E15045
:10019600EB83EA81E150EA83AB81A03019F4AA81AE
:1001A600A03009F001C001C0D2CF1881249608956D
:1001B600E0E0E5BBEFEFE4BBE2BBE3E0E1BBEFEF82
:1001C600EABBEFE0E7BBEFEFE8BBE1E0EBBB15D046
:1001D60028D0E2E0EBBB25D0E4E0EBBB5A924A9292
:1001E600A72DACDFF2CFFFCFF0E0E05AFE4FE08163
:1001F600E5BBA1E0B0E00C94190164DF9E2EA92DA9
:10020600B0E0EAE0F0E00E943A01EF5F5E2EA92D31
:10021600BB27EAE0F0E00E943F01EF5F4E2E772415
:1002260008955A924A92A72D89DFE7CF109639F0A2
:1002360080EA9FE00197F1F7A8951197C9F708950D
:10024600F195E195F04008950024112490E1AA0F5C
:10025600BB1F001C111C0E1A1F0A18F40E0E1F1EBF
:1002660001C0A1609A9599F7FD01D001089512D0B9
:10027600EBDF0EF4E5DF0895E894B7FF04C0A09520
:10028600B09511966894F7FDDBDFDEDFFD010EF415
:10029600D7DF0895E894F7FF02C0D2DF6894B7FF6E
:1002A60006C0A095B095119600F8039400FA08953B
:00000001FF
