:080000000C94F2000C940000C6
:100008000C9400000C9400000C9400000C94000068
:100018000C9400000C9400000C9400000C94000058
:100028000C9400000C9400000C9400000C94000048
:100038000C9400000C9400000C9400000C94000038
:100048000C9400000C9400000C9400001027E803A6
:1000580064000A0001000010000110000100000007
:10006800010001001400C0F9A4B0999282F88090B0
:10007800FEFDFBF714001400000001000000000062
:10008800000048656C6C6F2C57656C636F6D65205C
:10009800746F0054524146464943204C49474854DE
:1000A80000456E7465722054696D65205265640060
:1000B8006D61783D3630303A0057656C6C20446F7E
:1000C8006E652021004E6578742073746570004554
:1000D8006E7465722054696D652059656C6F770080
:1000E800456E7465722054696D6520477265656E4A
:1000F80000416C6C20726967687400707265737374
:1001080020627574746F6E00436F756E74696E67E4
:1001180020526564002564202F20256400436F75F4
:100128006E74696E672079656C6C6F7700436F75C4
:100138006E74696E6720677265656E0080C0010025
:100148002D4E414E00494E4600000800060066004C
:100158000A003A026E0004004402780001005A02C4
:100168007C0001005E027E00110060018A000E0022
:1001780071019B000F007F01A90009008E01B800E2
:100188000C009701C1000A00A301CD001100AD01C8
:10019800D7000900BE01B8000C00C701C1000A0061
:1001A800D301CD001100DD01E8000900EE01B8001F
:1001B8000A00F701F9000D00010203010D000E020B
:1001C800100110001B0225010F002B02350102004F
:1001D8006402440101006B0246010000F894EE2716
:1001E800ECBBF1E0FBBFEBBFE5BF8DE0A2E0BB27B6
:1001F800ED938A95E9F780E094E0A0E6ED93019706
:10020800E9F7E2E5F1E085919591009761F0A59114
:10021800B59105901590BF01F00105900D920197D9
:10022800E1F7FB01F0CFEFE5EDBFE4E0EEBFC0E69C
:10023800D1E00C945C011A930A931AE203E0552466
:10024800E4E05E1688F5E52DF0E0EC5BFD4FE0811B
:10025800E8BBB49902C000E0FCCFB59902C001E048
:10026800FCCFB69902C002E0FCCF0330D9F0E52DEF
:10027800A3E0EA02F001E00F1E2F1A3011F41FEF7D
:100288000EC0193049F400240614070424F4F301BD
:1002980031973F011BE003C01B3009F41DE003E068
:1002A800E12F03C05394CCCFCACF09911991089577
:1002B8006A978AE0A0E0B0E0E0E8F0E00E941D0B59
:1002C80020E030E040E050E0EFE0E7BBEFEFE8BBD4
:1002D800E4BBE0E0E8BBEFEFE1BBE0E0E2BBA0E1BC
:1002E8000E94E9030E94AA030E942307A0E6B1E046
:1002F8000E94D803E2E00E942807A1E7B1E00E942B
:10030800D8030E942C070E94AA03E1E0F0E0E81558
:10031800F90509F052C00E942307AFE7B1E00E9437
:100328003007AEE8B1E00E94340721F40E943B0791
:10033800EC933DC01D3091F50E944107A7E9B1E05B
:100348000E944807A3EAB1E00E94D803F40131965D
:100358004F010E944C070E94520784F40E945907DB
:10036800309721F40E945E07F09704C00E9464074A
:100378000E947A079F010E948407EDCF0E942C07F4
:1003880044240E948C0724F00E9492074394F9CFDA
:100398006624772469010E94AA0309C0D301A85BD7
:1003A800BD4FE12FEF5CEC93F30131963F01E9E09B
:1003B8000E9428070E94990796C1E2E0F0E0E8153C
:1003C800F90509F04FC00E942307ADEAB1E00E9489
:1003D8003007AEEBB1E00E94340719F40E943B07E6
:1003E8003AC01D30B1F50E944107A7ECB1E00E9468
:1003F8004807A3EDB1E00E94D803F40131964F01FC
:100408000E942C0720E030E00E944C070E9452070F
:1004180084F40E945907309721F40E945E07F097F0
:1004280004C00E9464070E947A079F010E94840703
:10043800EDCF20935A0230935B0244240E948C072C
:1004480024F00E9492074394F9CF662477247ED142
:1004580003C00E949D07EC93E9E00E9428070E94D0
:10046800990741C1E3E0F0E0E815F90509F050C04B
:100478000E942307ADEDB1E00E943007AEEEB1E077
:100488000E94340719F40E943B073BC01D30B9F5A0
:10049800F40131964F010E942C0720E030E00E94C1
:1004A8004C070E94520784F40E945907309721F4A0
:1004B8000E945E07F09704C00E9464070E947A07B2
:1004C8009F010E948407EDCF20935E0230935F0264
:1004D80044240E948C0724F00E9492074394F9CF89
:1004E8006624772433D1E0E00E942807A7EFB1E023
:1004F8005BD10E942307A1E0B2E056D103C00E945D
:100508009D07EC93E9E00E9428070E949907EBC039
:10051800E4E0F0E0E815F90509F0E5C0B79918C07E
:10052800E881F981309769F4E1E0F0E0E883F98344
:10053800A4E6B0E00E94AA08C0925802D0925902DC
:1005480007C0E0E0E883E983A4E6B0E00E94AA08D7
:10055800E1E0F0E0EA15FB0521F4A881B9811197E3
:1005680009F038C00E94A707AEE0B2E00E94480731
:100578000E94AE07F6010E94C107E0915A02F0916D
:100588005B02E0935C02F0935D020E94CD070E943B
:10059800D4070E94CD070E94D907E9E14E1670F4EE
:1005A800E1E10E94EE07E1E20E94F607E1E40E9421
:1005B8000108E1E80E940C084394EFCFA8E5B2E0F7
:1005C8000E941708E0915802F0915902309711F4EF
:1005D8000E941D08E2E0F0E0EA15FB0521F4A8817D
:1005E800B981119709F03BC00E94A707ABE1B2E0BF
:1005F8000E9448070E94AE07E0915A02F0915B0200
:100608000E94C107E0915E02F0915F02E0936002F0
:10061800F09361020E9426080E94D4070E942608CF
:100628000E94D907E9E14E1670F4E2E10E94EE0754
:10063800E2E20E94F607E2E40E940108E2E80E9472
:100648000C084394EFCFACE5B2E00E941708E091A4
:100658005C02F0915D02309711F40E941D08E3E0FE
:10066800F0E0EA15FB0521F4A881B981119709F09A
:100678003AC00E94A707ABE2B2E00E9448070E9476
:10068800AE07E0915E02F0915F020E94C107C0923E
:100698005802D09259020E942D080E94D4070E9445
:1006A8002D080E94D907E9E14E1670F4E4E10E9492
:1006B800EE07E4E20E94F607E4E40E940108E4E899
:1006C8000E940C084394EFCFA0E6B2E00E941708FE
:1006D800E0916002F0916102309729F4E1E0F0E0E6
:1006E8005F01EA83FB8311CEFFCFAA93EBB3EF70D0
:1006F800AE2FE881E07FEA2BEBBB8DE08A95F1F71E
:10070800DA9A8DE08A95F1F7DA988DE08A95F1F713
:1007180089C0AA93A881E9DFE881E295E883A881E6
:10072800E4DF85E88A95F1F77DC0AA93E881F0E0D7
:10073800EC59FD4FE081A981AE0FEBDFE981E09331
:100748006802E881E093690222960895A2E00E9477
:100758003408ACE0DEDFA1E00E943408E0E0E0937A
:100768006902E09368020895AA93A881AA3031F03B
:10077800E0916A02A0916802AE1760F0E0E0EA93A7
:10078800A0916902AF5FA0936902CFDFA881AA3068
:1007980009F448C0E0916802EF5FE0936802D89AD4
:1007A800A881B7DFD8983EC0BA93AA931A93A981B3
:1007B800BA81ED91A983BA831E2FE03019F0A12FD9
:1007C800D3DFF5CF188123960895AA93EAB3E06F93
:1007D800EABBD29AD09AD19ADA98D898D998E8816F
:1007E800E0936A02E058E0936602E881E054E093FF
:1007F8006702A4E1B0E00E94AA080E943A080E9499
:100808003A080E943A08A0E270DF88EC90E001976D
:10081800F1F7A8E27EDFA4E07CDFA5E87ADFA6E0B6
:1008280078DF94DF219608950E94E90A7B816A8126
:10083800F981E88177FB770F67FD7160972F9E57E5
:1008480081F078F0983190F4AA27BB27882708947C
:100858008795B795A7959A95D1F7EA23FB2368233F
:1008680005C0E8947727EE27FF2766276F777695E8
:1008780008F4606877F9A991B99189919991EA1773
:10088800FB076807790797FB08950E94E90A0E9409
:10089800DA0A0E9418040E94DF0A19F40E9442082A
:1008A80005C0E6F70E9442080E944508249608956C
:1008B8000E94E90A24971A930A930E944C080E94FE
:1008C800040B2CF0EFEFFFEF6FE77FEF73C00E9490
:1008D80051080E94E40AADB7BEB711971F930F9352
:1008E8000E94B4080F911F910E9456080E944C085C
:1008F800E3EFF4E065E37FE30E945A0A40F40E94C4
:100908005B080E9477090E945608015010400E9417
:1009180051080E9445087F936F93FF93EF930E94BD
:100928005108A0E0B0E080E89FE30E947709AF910A
:10093800BF918F919F910E94150A0E9456080E94AC
:100948005B080E945D08A6E2B2E485E69FE30E9488
:100958006408EEE4F1E164E570E40E9469080E942D
:100968004C080E94C7097F936F93FF93EF930E94EF
:100978006E08ADE4B1E184ED9FE30E947009AF9188
:10098800BF918F919F910E94150A7F936F93FF9358
:10099800EF93F8010E948A0A0E943D09A8E1B2E794
:1009A80081E39FE30E94C709AF91BF918F919F9107
:1009B8000E947709198108812A9608950E94E90AF8
:1009C80028971A930A930E947308E0E5FCEA6EEAF6
:1009D80072EC0E945A0A18F40E94780885C0EA85C9
:1009E800FB856C857D850E94000B29F4E0E0F0E032
:1009F80060E87FE379C00E947308E8E1F2E761EB01
:100A080072E40E945A0A09F008F405C0EFEFFFEFFC
:100A18006FE77FE769C00E947308EBE3FAEA68EBC7
:100A28007FE30E94C709EA87FB876C877D870E945E
:100A380073082BDF0E9406098F010E9473080E9429
:100A48008A0A0E943D090E946908DF01CB01E0E0A3
:100A5800F0E060E07FE30E9469080E9456080E9467
:100A68005B080E945D08ADE6BCE48CE69DE30E944D
:100A7800C709A6EAB3EE86EE90E40E9477090E94C1
:100A88004C080E94C7090E9456080E946E08A8E2F6
:100A9800BDE886EA91E40E947709EA83FB836C83C8
:100AA8007D830E945108AA81BB818C819D810E940F
:100AB8007709A3EFB4E085EB9FE30E94C7097F9312
:100AC8006F93FF93EF930E944C080E946E080E9458
:100AD8007009AF91BF918F919F910E94150A0E9452
:100AE800E40AD8010E94C508198108812E96089544
:100AF8000E94E90A24970E947D080E94000B19F4BD
:100B08000E94780845C0A885B9858A859B850E947A
:100B1800040B94F40E9482080E94000B29F4E0E080
:100B2800F0E060E87FE334C0A885B9858A859B85B5
:100B38000E94870843DF2CC00E948208DE010E94C1
:100B480006090E94CC0A0E9442080E943D09DF0162
:100B5800CB010E9482080E940A0B19F00E947808B3
:100B680017C00E947D080E94D108DF01CB010E94B6
:100B7800870824DFE887F9876A877B87E881E1703F
:100B880019F40E947D0804C00E947D080E94D108C3
:100B98002C960895BA93AA931A930A93AA81BB81B3
:100BA80012960E94C80A309759F1AA81BB811496FF
:100BB8000E94C80A8F01309761F00230E0E01E07FA
:100BC80098F0F80131978F01AA81BB811496ED93B3
:100BD800FC93AA81BB811296ED91FD913196FE930B
:100BE800EE933197AC81A083AA81BB810E94C80A89
:100BF800FF232AF0ED91FD913196FE93EE9306C006
:100C0800AA81BB81EFEFFFEFED93FC931981088177
:100C180025960895BA93AA9324970E940F0B10E083
:100C2800AA85BB85E0E0F0E0ED93FC93E889F989BB
:100C38003196E88BF98B3197E4913E2FE03009F437
:100C4800C2C0E12FE03039F4353211F411E002C0AE
:100C58000E948E08B7C0E13089F4353219F40E9439
:100C68008E08AFC012E020E000E03B3211F42BE226
:100C7800A9C0303211F420E2A5C002C0E23031F43C
:100C8800303319F4006115E09DC003C0E53009F068
:100C980099C0E32FE33661F40E949508EE85FF853D
:100CA800A481AA93AB85BC85ED85FE85099589C08D
:100CB800E33781F40E9495080E949B08AE81BF81AA
:100CC800ED91AE83BF833E2FE03019F00E948E086D
:100CD800F5CF77C0E03791F40E9495080E949B08F1
:100CE800EE81FF813196EE83FF833197E4913E2FA9
:100CF800E03019F00E948E08F3CF63C0E43611F09B
:100D0800E93611F4016002C0E53719F4E4E5F0E0D2
:100D180009C0E83511F4026003C0E83709F051C092
:100D2800EEE5F0E0EE83FF8300FF17C00E94950810
:100D3800AE85BF8514964D915C9155232AF4FA012E
:100D48000E947E0AAF012DE2203031F02A93AB8554
:100D5800BC85ED85FE85099507C00E949508AE857E
:100D6800BF8514964D915C9130E3EE81FF810E941E
:100D7800D10AE887F987EE81FF813296EE83FF83F7
:100D8800E885F9854E175F0730F03F5FA885B9857C
:100D98004A1B5B0BF5CF04FD06C0313320F4A88550
:100DA800B985119751F400613A3328F001FF02C068
:100DB800395F01C0395D0E948E08A885B9851297F0
:100DC80098F610E033CFAA85BB850E94C80A0E9416
:100DD800160B62960895FF92F82E26970E94110B23
:100DE8000E94A308309719F4EFEFFFEF23C0DE014C
:100DF80016960E947A0A8D010E94A308EE83FF834B
:100E0800E0E0E887E987DE011A960E947A0A0E94E4
:100E1800C80AFA93EA931A930A93EEECF5E0FA9368
:100E2800EA93DE011A96F6DE9F01AE81BF81E0E00B
:100E3800EC93F9010E94180B2A96FF900895E0E0C0
:100E4800EA93A0E00C949903EA93A1E00C94990327
:100E5800AAE0B0E00C94AA080E94D803E0E0F4CF1E
:100E68000E94D8030E941F011E2F1B300895A8E47A
:100E7800B2E0A60DB71DE0E208950E94AA03E3E0E0
:100E8800EA93A0E00C9499030E94D803E3E0DCCF36
:100E9800E0E0E0936202E09363020895A0916202A9
:100EA800B0916302A615B7050895E0916202F0912A
:100EB80063020895FADFE85BFD4FE081F0E00895F2
:100EC800E0E0F0E060E271E40E94E40AA0E0B0E053
:100ED80080E89FE30E947C05D9010E948F0A0E9446
:100EE800F00A0E94C709DF01CB01E4CFBF970E9437
:100EF8008A0A0E943D090E9477090E9406090895FE
:100F0800A2E6B2E0ED91FD913196FE93EE9308953D
:100F1800F301A42DB0E0EA17FB070895E42DF0E0F3
:100F2800E85BFD4FA0E2A0830895A8E4B2E00C942A
:100F3800D803F30131963F013197E85BFD4FDF019C
:100F4800E12FEF5C08950E94AA03E1E0EA93A0E094
:100F58000C949903FE013A96FA93EA93EDE1F1E0D5
:100F6800FA93EA93EE81FF813196EE83FF833197FE
:100F78000E948A0A0E94E40A08950E948A0A0E942E
:100F8800E40A88E00E94EF062C96DE011A960C947B
:100F9800D803A0915802B0915902E4E6F0E0089510
:100FA8000E94A70AEE83FF8308950E94AC0AEC838F
:100FB800FD83AC81BD81EAE0F0E00E94A70AE887E2
:100FC800F987AC81BD81EAE0F0E00E94AC0AAF018C
:100FD80044240895E5BBE0913A02E2BBA3E0B0E007
:100FE8000C94AA08E5BBEE81FF81E65CFD4FE08129
:100FF800E2BBA3E0B0E00C94AA08E5BBE885F9855C
:10100800E65CFD4FE081E2BBA3E0B0E00C94AA08E7
:10101800E5BBAAE3B2E0A40FB51FEC91E2BBA3E0E5
:10102800B0E00C94AA08ED91FD913197FE93EE93F0
:101038000895F50131965F013197E1E0F0E0EA8328
:10104800FB830895A0915C02B0915D02E4E6F0E0B4
:101058000895A0916002B0916102E4E6F0E008957D
:101068000E948D03A3E0B0E00C94AA08A0E30E94BC
:10107800790388EC90E00197F1F708950E94D50A6A
:101088000895A0E0B0E080E89FE30E947009089509
:10109800AE81BF81888599850895EE81FF81688535
:1010A80079850895EE83FF83688779870895F5DF4A
:1010B800EFCF0E94C709EA83FB836C837D83089581
:1010C8000E94C709DF01CB0108950E94F30A0E941C
:1010D80070090895EA81FB816C817D810895AA8554
:1010E800BB858C859D850895E0E0F0E060E070E0C8
:1010F8000895E885F9856A857B850895EC81FD81E9
:101108006E817F8108950E945C04AC81BD818E81CF
:101118009F81D6CF3A93AB85BC85ED85FE85099531
:101128000895EE85FF853497EE87FF870895AE858D
:10113800BF8514960E94C80AEE83FF830895DE01D6
:101148001C960E947A0A0E94C80A0895109639F0DF
:1011580080ED97E00197F1F7A8951197C9F70895E1
:10116800E991F9916991799177FB660F771F882743
:101178007E57880B7D938C937EE7769567956EF006
:101188000895E991F9916991799177FB660F771F35
:101198007A0F769567950EF0089530976040704005
:1011A80009F070580895552342F4503811F4E0FFBF
:1011B80004C03196691F791F6BF050E8572711F466
:1011C8005F93CFC05F3F31F0660F000C579567956E
:1011D800752F08955F9300200AF0CFC0C8C050E86B
:1011E800192E1522880F991F9527550F879550E8B6
:1011F800072E0522660F771F7527550F67950895E7
:10120800689401C0E8945F93F2DF703818F07F3F6C
:1012180008F4A7C056E1571BAAF4519558300EF4AC
:10122800593030F0EFEFFFEF6FEF7FE777F91AC033
:1012380077275523B9F0EE0FFF1F661F771F5A95C2
:10124800D1F710C07727583028F0EF2FF62F672FE7
:101258005850F9CF552331F076956795F795E7956E
:101268005A95D1F700200AF449D15F9108956894FE
:1012780001C0E894309760407040B1F0002426F037
:10128800772312F400943AD1172E7EE1112032F020
:101298007A95EE0FFF1F661F111CF9CFEF2FF62F5F
:1012A800612D5F938ADF5F9108954F93AF01FD0130
:1012B800DA01AB01BC01CA01402D012C142E4F915B
:1012C8000895EA0FFB1F681F0895E095F095609553
:1012D800EF5FFF4F6F4F08955F9381DF903871F193
:1012E80050E8152604C05F937ADF903839F17038DA
:1012F80021F1572F591B2BF112F4D7DFFACF5831B0
:1013080018F0AA27BB278827583028F0AB2FB82F0A
:1013180088275850F9CF552329F08695B795A79572
:101328005A95D9F7502D512572F0CBDF38F46795CF
:10133800F795E795739513F420C0B7DF3EDF5F910B
:101348000895D8F7FBCFEA1BFB0B680B51F010F49C
:101358000094BBDF662392F3EE0FFF1F661F7A959A
:10136800CBF7EE27FF27662777275F910895EFEFE2
:10137800FFEF6FE77FEF5F910895EFEFFFEF6FE704
:101388007FE75F9108955F932ADF703851F39038B3
:1013980041F301240894791F23F41CF300203AF345
:1013A800ECCF0F921F932F933F934F931127222730
:1013B8009927689FA0018F9F302D410D591F6B9F62
:1013C800300D411D591F8E9F27D0BF9F25D06A9F82
:1013D80023D0BE9F1DD0AF9F1BD0AE9F110D291FDC
:1013E800391F491F591FE32FF42F652F522F4F9193
:1013F8003F912F911F910F9066232AF0550FEE1FF2
:10140800FF1F661F02C073954BF2CDDE5F910895F2
:10141800100D211D391F02C0200D311D491F591FF4
:1014280008955F93DCDE703821F411200AF49FCF11
:10143800A4CF903809F495CF01240894970B1BF496
:10144800D4F30020F3CF792F1F932F933F934F931B
:1014580011241127222733274427552790E2AE1756
:10146800BF078607410730F0AE1BBF0B860B410B49
:10147800089401C08894551F221F331F111CAA1FEE
:10148800BB1F881F441F9A9551F7F901612D4F9191
:101498003F912F911F91662332F0550FEE1FFF1FCA
:1014A800661F7A9543F27FDE5F91089599239AF03B
:1014B800772342F0971748F029F4AE17BF0786073D
:1014C80020F031F098948894089598940894089599
:1014D8001894889408957723C2F7971798F3A9F773
:1014E800EA17FB07680788F399F3ECCF0024AF0DE0
:1014F800B01D0895F195E195F0400895F095609537
:101508007095E195FF4F6F4F7F4F08956F2F660FCE
:10151800660B762F08958B2F880F880B982F0895C8
:101528000024112490E1AA0FBB1F001C111C0E1AE5
:101538001F0A18F40E0E1F1E01C0A1609A9599F794
:10154800FD01D001089512D0EBDF0EF4D3DF08952A
:10155800E894B7FF04C0A095B09511966894F7FD7C
:10156800C9DFDEDFFD010EF4C5DF0895E894F7FF5B
:1015780002C0C0DF6894B7FF06C0A095B095119669
:1015880000F8039400FA0895ED91FC9111970895DD
:10159800ED93FD936D937C9308950590F491E02D60
:1015A8000895E881F9816A817B810895A881B981CC
:1015B8008A819B810895E883F9836A837B830895F0
:1015C8007A936A93FA93EA9308959A938A93BA93CB
:1015D800AA930895689401C0E89401D04BDE182EB0
:1015E800862F612D192E972F712D1B2EBF2FF12DB0
:1015F8001A2EAE2FE12D089530976040704008955F
:1016080000240A160B06080609060895EA17FB07C0
:101618006807790708955A934A933A932A931A9335
:101628000A9308955D814C813B812A811981088143
:101638000895AC0FBD1F05900D928A95E1F70895A6
:00000001FF
